{
  "_format": "hh-sol-artifact-1",
  "contractName": "TrustTrace",
  "sourceName": "contracts/TrustTrace.sol",
  "abi": [
    {
      "inputs": [
        {
          "internalType": "address",
          "name": "_trustUSD",
          "type": "address"
        },
        {
          "internalType": "uint256",
          "name": "_maxTotalDonations",
          "type": "uint256"
        },
        {
          "internalType": "address",
          "name": "regulator",
          "type": "address"
        },
        {
          "internalType": "uint256[]",
          "name": "allowancePercentage",
          "type": "uint256[]"
        }
      ],
      "stateMutability": "nonpayable",
      "type": "constructor"
    },
    {
      "inputs": [],
      "name": "AccessControlBadConfirmation",
      "type": "error"
    },
    {
      "inputs": [
        {
          "internalType": "address",
          "name": "account",
          "type": "address"
        },
        {
          "internalType": "bytes32",
          "name": "neededRole",
          "type": "bytes32"
        }
      ],
      "name": "AccessControlUnauthorizedAccount",
      "type": "error"
    },
    {
      "anonymous": false,
      "inputs": [
        {
          "indexed": true,
          "internalType": "bytes32",
          "name": "role",
          "type": "bytes32"
        },
        {
          "indexed": true,
          "internalType": "bytes32",
          "name": "previousAdminRole",
          "type": "bytes32"
        },
        {
          "indexed": true,
          "internalType": "bytes32",
          "name": "newAdminRole",
          "type": "bytes32"
        }
      ],
      "name": "RoleAdminChanged",
      "type": "event"
    },
    {
      "anonymous": false,
      "inputs": [
        {
          "indexed": true,
          "internalType": "bytes32",
          "name": "role",
          "type": "bytes32"
        },
        {
          "indexed": true,
          "internalType": "address",
          "name": "account",
          "type": "address"
        },
        {
          "indexed": true,
          "internalType": "address",
          "name": "sender",
          "type": "address"
        }
      ],
      "name": "RoleGranted",
      "type": "event"
    },
    {
      "anonymous": false,
      "inputs": [
        {
          "indexed": true,
          "internalType": "bytes32",
          "name": "role",
          "type": "bytes32"
        },
        {
          "indexed": true,
          "internalType": "address",
          "name": "account",
          "type": "address"
        },
        {
          "indexed": true,
          "internalType": "address",
          "name": "sender",
          "type": "address"
        }
      ],
      "name": "RoleRevoked",
      "type": "event"
    },
    {
      "inputs": [],
      "name": "DEFAULT_ADMIN_ROLE",
      "outputs": [
        {
          "internalType": "bytes32",
          "name": "",
          "type": "bytes32"
        }
      ],
      "stateMutability": "view",
      "type": "function"
    },
    {
      "inputs": [],
      "name": "REGULATOR_ROLE",
      "outputs": [
        {
          "internalType": "bytes32",
          "name": "",
          "type": "bytes32"
        }
      ],
      "stateMutability": "view",
      "type": "function"
    },
    {
      "inputs": [
        {
          "internalType": "uint256",
          "name": "segment",
          "type": "uint256"
        },
        {
          "internalType": "address",
          "name": "newRecipient",
          "type": "address"
        }
      ],
      "name": "addAllowedRecipient",
      "outputs": [],
      "stateMutability": "nonpayable",
      "type": "function"
    },
    {
      "inputs": [
        {
          "internalType": "uint256",
          "name": "",
          "type": "uint256"
        }
      ],
      "name": "allowedAmounts",
      "outputs": [
        {
          "internalType": "uint256",
          "name": "",
          "type": "uint256"
        }
      ],
      "stateMutability": "view",
      "type": "function"
    },
    {
      "inputs": [
        {
          "internalType": "uint256",
          "name": "",
          "type": "uint256"
        },
        {
          "internalType": "uint256",
          "name": "",
          "type": "uint256"
        }
      ],
      "name": "allowedRecipients",
      "outputs": [
        {
          "internalType": "address",
          "name": "",
          "type": "address"
        }
      ],
      "stateMutability": "view",
      "type": "function"
    },
    {
      "inputs": [
        {
          "internalType": "uint256",
          "name": "segment",
          "type": "uint256"
        },
        {
          "internalType": "uint256",
          "name": "key",
          "type": "uint256"
        },
        {
          "internalType": "uint256",
          "name": "amount",
          "type": "uint256"
        }
      ],
      "name": "distributeFunds",
      "outputs": [],
      "stateMutability": "nonpayable",
      "type": "function"
    },
    {
      "inputs": [
        {
          "internalType": "uint256",
          "name": "amount",
          "type": "uint256"
        }
      ],
      "name": "donate",
      "outputs": [],
      "stateMutability": "nonpayable",
      "type": "function"
    },
    {
      "inputs": [
        {
          "internalType": "bytes32",
          "name": "role",
          "type": "bytes32"
        }
      ],
      "name": "getRoleAdmin",
      "outputs": [
        {
          "internalType": "bytes32",
          "name": "",
          "type": "bytes32"
        }
      ],
      "stateMutability": "view",
      "type": "function"
    },
    {
      "inputs": [
        {
          "internalType": "bytes32",
          "name": "role",
          "type": "bytes32"
        },
        {
          "internalType": "address",
          "name": "account",
          "type": "address"
        }
      ],
      "name": "grantRole",
      "outputs": [],
      "stateMutability": "nonpayable",
      "type": "function"
    },
    {
      "inputs": [
        {
          "internalType": "bytes32",
          "name": "role",
          "type": "bytes32"
        },
        {
          "internalType": "address",
          "name": "account",
          "type": "address"
        }
      ],
      "name": "hasRole",
      "outputs": [
        {
          "internalType": "bool",
          "name": "",
          "type": "bool"
        }
      ],
      "stateMutability": "view",
      "type": "function"
    },
    {
      "inputs": [],
      "name": "maxTotalDonations",
      "outputs": [
        {
          "internalType": "uint256",
          "name": "",
          "type": "uint256"
        }
      ],
      "stateMutability": "view",
      "type": "function"
    },
    {
      "inputs": [
        {
          "internalType": "bytes32",
          "name": "role",
          "type": "bytes32"
        },
        {
          "internalType": "address",
          "name": "callerConfirmation",
          "type": "address"
        }
      ],
      "name": "renounceRole",
      "outputs": [],
      "stateMutability": "nonpayable",
      "type": "function"
    },
    {
      "inputs": [
        {
          "internalType": "bytes32",
          "name": "role",
          "type": "bytes32"
        },
        {
          "internalType": "address",
          "name": "account",
          "type": "address"
        }
      ],
      "name": "revokeRole",
      "outputs": [],
      "stateMutability": "nonpayable",
      "type": "function"
    },
    {
      "inputs": [
        {
          "internalType": "uint256",
          "name": "",
          "type": "uint256"
        }
      ],
      "name": "segmentLength",
      "outputs": [
        {
          "internalType": "uint256",
          "name": "",
          "type": "uint256"
        }
      ],
      "stateMutability": "view",
      "type": "function"
    },
    {
      "inputs": [
        {
          "internalType": "bytes4",
          "name": "interfaceId",
          "type": "bytes4"
        }
      ],
      "name": "supportsInterface",
      "outputs": [
        {
          "internalType": "bool",
          "name": "",
          "type": "bool"
        }
      ],
      "stateMutability": "view",
      "type": "function"
    },
    {
      "inputs": [],
      "name": "totalDonations",
      "outputs": [
        {
          "internalType": "uint256",
          "name": "",
          "type": "uint256"
        }
      ],
      "stateMutability": "view",
      "type": "function"
    },
    {
      "inputs": [],
      "name": "trustUSD",
      "outputs": [
        {
          "internalType": "contract IERC20",
          "name": "",
          "type": "address"
        }
      ],
      "stateMutability": "view",
      "type": "function"
    }
  ],
  "bytecode": "0x60806040523480156200001157600080fd5b5060405162001ff138038062001ff18339818101604052810190620000379190620005c7565b60646200004a82620001c860201b60201c565b146200008d576040517f08c379a00000000000000000000000000000000000000000000000000000000081526004016200008490620006df565b60405180910390fd5b620000bf7f20b5f7ac978e5d6199de06401411960dfa81d2f762655f6206bdc61d46fc19e6836200022960201b60201c565b50620000d56000801b336200022960201b60201c565b5083600160006101000a81548173ffffffffffffffffffffffffffffffffffffffff021916908373ffffffffffffffffffffffffffffffffffffffff1602179055508260068190555060005b8151811015620001bd57606482828151811062000143576200014262000701565b5b60200260200101516006546200015a91906200075f565b620001669190620007d9565b60036000838152602001908152602001600020819055506004600090806001815401808255809150506001900390600052602060002001600090919091909150558080620001b49062000811565b91505062000121565b505050505062000899565b6000806000905060005b83518110156200021f57838181518110620001f257620001f162000701565b5b6020026020010151826200020791906200085e565b91508080620002169062000811565b915050620001d2565b5080915050919050565b60006200023d83836200032c60201b60201c565b6200032157600160008085815260200190815260200160002060000160008473ffffffffffffffffffffffffffffffffffffffff1673ffffffffffffffffffffffffffffffffffffffff16815260200190815260200160002060006101000a81548160ff021916908315150217905550620002bd6200039660201b60201c565b73ffffffffffffffffffffffffffffffffffffffff168273ffffffffffffffffffffffffffffffffffffffff16847f2f8788117e7eff1d82e926ec794901d17c78024a50270940304540a733656f0d60405160405180910390a46001905062000326565b600090505b92915050565b600080600084815260200190815260200160002060000160008373ffffffffffffffffffffffffffffffffffffffff1673ffffffffffffffffffffffffffffffffffffffff16815260200190815260200160002060009054906101000a900460ff16905092915050565b600033905090565b6000604051905090565b600080fd5b600080fd5b600073ffffffffffffffffffffffffffffffffffffffff82169050919050565b6000620003df82620003b2565b9050919050565b620003f181620003d2565b8114620003fd57600080fd5b50565b6000815190506200041181620003e6565b92915050565b6000819050919050565b6200042c8162000417565b81146200043857600080fd5b50565b6000815190506200044c8162000421565b92915050565b600080fd5b6000601f19601f8301169050919050565b7f4e487b7100000000000000000000000000000000000000000000000000000000600052604160045260246000fd5b620004a28262000457565b810181811067ffffffffffffffff82111715620004c457620004c362000468565b5b80604052505050565b6000620004d96200039e565b9050620004e7828262000497565b919050565b600067ffffffffffffffff8211156200050a576200050962000468565b5b602082029050602081019050919050565b600080fd5b6000620005376200053184620004ec565b620004cd565b905080838252602082019050602084028301858111156200055d576200055c6200051b565b5b835b818110156200058a57806200057588826200043b565b8452602084019350506020810190506200055f565b5050509392505050565b600082601f830112620005ac57620005ab62000452565b5b8151620005be84826020860162000520565b91505092915050565b60008060008060808587031215620005e457620005e3620003a8565b5b6000620005f48782880162000400565b945050602062000607878288016200043b565b93505060406200061a8782880162000400565b925050606085015167ffffffffffffffff8111156200063e576200063d620003ad565b5b6200064c8782880162000594565b91505092959194509250565b600082825260208201905092915050565b7f547275737454726163653a20416c6c6f77616e63657320646f206e6f7420616460008201527f6420757020746f20313030000000000000000000000000000000000000000000602082015250565b6000620006c7602b8362000658565b9150620006d48262000669565b604082019050919050565b60006020820190508181036000830152620006fa81620006b8565b9050919050565b7f4e487b7100000000000000000000000000000000000000000000000000000000600052603260045260246000fd5b7f4e487b7100000000000000000000000000000000000000000000000000000000600052601160045260246000fd5b60006200076c8262000417565b9150620007798362000417565b9250828202620007898162000417565b91508282048414831517620007a357620007a262000730565b5b5092915050565b7f4e487b7100000000000000000000000000000000000000000000000000000000600052601260045260246000fd5b6000620007e68262000417565b9150620007f38362000417565b925082620008065762000805620007aa565b5b828204905092915050565b60006200081e8262000417565b91507fffffffffffffffffffffffffffffffffffffffffffffffffffffffffffffffff820362000853576200085262000730565b5b600182019050919050565b60006200086b8262000417565b9150620008788362000417565b925082820190508082111562000893576200089262000730565b5b92915050565b61174880620008a96000396000f3fe608060405234801561001057600080fd5b506004361061010b5760003560e01c80637b64adfc116100a2578063c16bd73d11610071578063c16bd73d146102de578063d547741f146102fc578063dd97dc8f14610318578063de2ed89314610334578063f14faf6f146103525761010b565b80637b64adfc146102425780637c54fc991461026057806391d1485414610290578063a217fddf146102c05761010b565b80632964d852116100de5780632964d852146101aa5780632f2ff15d146101da57806336568abe146101f6578063772f4427146102125761010b565b806301ffc9a71461011057806311975cab14610140578063144bf5891461015c578063248a9ca31461017a575b600080fd5b61012a60048036038101906101259190610e91565b61036e565b6040516101379190610ed9565b60405180910390f35b61015a60048036038101906101559190610f88565b6103e8565b005b6101646104c1565b6040516101719190610fe1565b60405180910390f35b610194600480360381019061018f9190611028565b6104e5565b6040516101a19190610fe1565b60405180910390f35b6101c460048036038101906101bf9190611055565b610504565b6040516101d19190611091565b60405180910390f35b6101f460048036038101906101ef91906110ac565b610528565b005b610210600480360381019061020b91906110ac565b61054a565b005b61022c60048036038101906102279190611055565b6105c5565b6040516102399190611091565b60405180910390f35b61024a6105dd565b6040516102579190611091565b60405180910390f35b61027a600480360381019061027591906110ec565b6105e3565b604051610287919061113b565b60405180910390f35b6102aa60048036038101906102a591906110ac565b610631565b6040516102b79190610ed9565b60405180910390f35b6102c861069b565b6040516102d59190610fe1565b60405180910390f35b6102e66106a2565b6040516102f391906111b5565b60405180910390f35b610316600480360381019061031191906110ac565b6106c8565b005b610332600480360381019061032d91906111d0565b6106ea565b005b61033c610a25565b6040516103499190611091565b60405180910390f35b61036c60048036038101906103679190611055565b610a2b565b005b60007f7965db0b000000000000000000000000000000000000000000000000000000007bffffffffffffffffffffffffffffffffffffffffffffffffffffffff1916827bffffffffffffffffffffffffffffffffffffffffffffffffffffffff191614806103e157506103e082610b7a565b5b9050919050565b7f20b5f7ac978e5d6199de06401411960dfa81d2f762655f6206bdc61d46fc19e661041281610be4565b60026000848152602001908152602001600020829080600181540180825580915050600190039060005260206000200160009091909190916101000a81548173ffffffffffffffffffffffffffffffffffffffff021916908373ffffffffffffffffffffffffffffffffffffffff16021790555060016004848154811061049c5761049b611223565b5b9060005260206000200160008282546104b59190611281565b92505081905550505050565b7f20b5f7ac978e5d6199de06401411960dfa81d2f762655f6206bdc61d46fc19e681565b6000806000838152602001908152602001600020600101549050919050565b6004818154811061051457600080fd5b906000526020600020016000915090505481565b610531826104e5565b61053a81610be4565b6105448383610bf8565b50505050565b610552610ce9565b73ffffffffffffffffffffffffffffffffffffffff168173ffffffffffffffffffffffffffffffffffffffff16146105b6576040517f6697b23200000000000000000000000000000000000000000000000000000000815260040160405180910390fd5b6105c08282610cf1565b505050565b60036020528060005260406000206000915090505481565b60065481565b600260205281600052604060002081815481106105ff57600080fd5b906000526020600020016000915091509054906101000a900473ffffffffffffffffffffffffffffffffffffffff1681565b600080600084815260200190815260200160002060000160008373ffffffffffffffffffffffffffffffffffffffff1673ffffffffffffffffffffffffffffffffffffffff16815260200190815260200160002060009054906101000a900460ff16905092915050565b6000801b81565b600160009054906101000a900473ffffffffffffffffffffffffffffffffffffffff1681565b6106d1826104e5565b6106da81610be4565b6106e48383610cf1565b50505050565b6000801b6106f781610be4565b6000600260008681526020019081526020016000208054905011610750576040517f08c379a000000000000000000000000000000000000000000000000000000000815260040161074790611312565b60405180910390fd5b60008211610793576040517f08c379a000000000000000000000000000000000000000000000000000000000815260040161078a9061137e565b60405180910390fd5b81600160009054906101000a900473ffffffffffffffffffffffffffffffffffffffff1673ffffffffffffffffffffffffffffffffffffffff166370a08231306040518263ffffffff1660e01b81526004016107ef919061113b565b602060405180830381865afa15801561080c573d6000803e3d6000fd5b505050506040513d601f19601f8201168201806040525081019061083091906113b3565b1015610871576040517f08c379a00000000000000000000000000000000000000000000000000000000081526004016108689061142c565b60405180910390fd5b81600360008681526020019081526020016000205410156108c7576040517f08c379a00000000000000000000000000000000000000000000000000000000081526004016108be90611498565b60405180910390fd5b600160009054906101000a900473ffffffffffffffffffffffffffffffffffffffff1673ffffffffffffffffffffffffffffffffffffffff1663a9059cbb60026000878152602001908152602001600020858154811061092a57610929611223565b5b9060005260206000200160009054906101000a900473ffffffffffffffffffffffffffffffffffffffff16846040518363ffffffff1660e01b81526004016109739291906114b8565b6020604051808303816000875af1158015610992573d6000803e3d6000fd5b505050506040513d601f19601f820116820180604052508101906109b6919061150d565b6109f5576040517f08c379a00000000000000000000000000000000000000000000000000000000081526004016109ec90611586565b60405180910390fd5b81600360008681526020019081526020016000206000828254610a1891906115a6565b9250508190555050505050565b60055481565b60065481600554610a3c9190611281565b1115610a7d576040517f08c379a0000000000000000000000000000000000000000000000000000000008152600401610a7490611626565b60405180910390fd5b600160009054906101000a900473ffffffffffffffffffffffffffffffffffffffff1673ffffffffffffffffffffffffffffffffffffffff166323b872dd3330846040518463ffffffff1660e01b8152600401610adc93929190611646565b6020604051808303816000875af1158015610afb573d6000803e3d6000fd5b505050506040513d601f19601f82011682018060405250810190610b1f919061150d565b610b5e576040517f08c379a0000000000000000000000000000000000000000000000000000000008152600401610b55906116c9565b60405180910390fd5b8060056000828254610b709190611281565b9250508190555050565b60007f01ffc9a7000000000000000000000000000000000000000000000000000000007bffffffffffffffffffffffffffffffffffffffffffffffffffffffff1916827bffffffffffffffffffffffffffffffffffffffffffffffffffffffff1916149050919050565b610bf581610bf0610ce9565b610de3565b50565b6000610c048383610631565b610cde57600160008085815260200190815260200160002060000160008473ffffffffffffffffffffffffffffffffffffffff1673ffffffffffffffffffffffffffffffffffffffff16815260200190815260200160002060006101000a81548160ff021916908315150217905550610c7b610ce9565b73ffffffffffffffffffffffffffffffffffffffff168273ffffffffffffffffffffffffffffffffffffffff16847f2f8788117e7eff1d82e926ec794901d17c78024a50270940304540a733656f0d60405160405180910390a460019050610ce3565b600090505b92915050565b600033905090565b6000610cfd8383610631565b15610dd857600080600085815260200190815260200160002060000160008473ffffffffffffffffffffffffffffffffffffffff1673ffffffffffffffffffffffffffffffffffffffff16815260200190815260200160002060006101000a81548160ff021916908315150217905550610d75610ce9565b73ffffffffffffffffffffffffffffffffffffffff168273ffffffffffffffffffffffffffffffffffffffff16847ff6391f5c32d9c69d2a47ea670b442974b53935d1edc7fd64eb21e047a839171b60405160405180910390a460019050610ddd565b600090505b92915050565b610ded8282610631565b610e305780826040517fe2517d3f000000000000000000000000000000000000000000000000000000008152600401610e279291906116e9565b60405180910390fd5b5050565b600080fd5b60007fffffffff0000000000000000000000000000000000000000000000000000000082169050919050565b610e6e81610e39565b8114610e7957600080fd5b50565b600081359050610e8b81610e65565b92915050565b600060208284031215610ea757610ea6610e34565b5b6000610eb584828501610e7c565b91505092915050565b60008115159050919050565b610ed381610ebe565b82525050565b6000602082019050610eee6000830184610eca565b92915050565b6000819050919050565b610f0781610ef4565b8114610f1257600080fd5b50565b600081359050610f2481610efe565b92915050565b600073ffffffffffffffffffffffffffffffffffffffff82169050919050565b6000610f5582610f2a565b9050919050565b610f6581610f4a565b8114610f7057600080fd5b50565b600081359050610f8281610f5c565b92915050565b60008060408385031215610f9f57610f9e610e34565b5b6000610fad85828601610f15565b9250506020610fbe85828601610f73565b9150509250929050565b6000819050919050565b610fdb81610fc8565b82525050565b6000602082019050610ff66000830184610fd2565b92915050565b61100581610fc8565b811461101057600080fd5b50565b60008135905061102281610ffc565b92915050565b60006020828403121561103e5761103d610e34565b5b600061104c84828501611013565b91505092915050565b60006020828403121561106b5761106a610e34565b5b600061107984828501610f15565b91505092915050565b61108b81610ef4565b82525050565b60006020820190506110a66000830184611082565b92915050565b600080604083850312156110c3576110c2610e34565b5b60006110d185828601611013565b92505060206110e285828601610f73565b9150509250929050565b6000806040838503121561110357611102610e34565b5b600061111185828601610f15565b925050602061112285828601610f15565b9150509250929050565b61113581610f4a565b82525050565b6000602082019050611150600083018461112c565b92915050565b6000819050919050565b600061117b61117661117184610f2a565b611156565b610f2a565b9050919050565b600061118d82611160565b9050919050565b600061119f82611182565b9050919050565b6111af81611194565b82525050565b60006020820190506111ca60008301846111a6565b92915050565b6000806000606084860312156111e9576111e8610e34565b5b60006111f786828701610f15565b935050602061120886828701610f15565b925050604061121986828701610f15565b9150509250925092565b7f4e487b7100000000000000000000000000000000000000000000000000000000600052603260045260246000fd5b7f4e487b7100000000000000000000000000000000000000000000000000000000600052601160045260246000fd5b600061128c82610ef4565b915061129783610ef4565b92508282019050808211156112af576112ae611252565b5b92915050565b600082825260208201905092915050565b7f4e6f20726563697069656e747320696e20746869732067726f75700000000000600082015250565b60006112fc601b836112b5565b9150611307826112c6565b602082019050919050565b6000602082019050818103600083015261132b816112ef565b9050919050565b7f416d6f756e742073686f756c642062652067726561746572207468616e203000600082015250565b6000611368601f836112b5565b915061137382611332565b602082019050919050565b600060208201905081810360008301526113978161135b565b9050919050565b6000815190506113ad81610efe565b92915050565b6000602082840312156113c9576113c8610e34565b5b60006113d78482850161139e565b91505092915050565b7f436f6e74726163742062616c616e636520697320696e73756666696369656e74600082015250565b60006114166020836112b5565b9150611421826113e0565b602082019050919050565b6000602082019050818103600083015261144581611409565b9050919050565b7f45786365656473206d6178696d756d20646973747269627574696f6e00000000600082015250565b6000611482601c836112b5565b915061148d8261144c565b602082019050919050565b600060208201905081810360008301526114b181611475565b9050919050565b60006040820190506114cd600083018561112c565b6114da6020830184611082565b9392505050565b6114ea81610ebe565b81146114f557600080fd5b50565b600081519050611507816114e1565b92915050565b60006020828403121561152357611522610e34565b5b6000611531848285016114f8565b91505092915050565b7f547275737454726163653a205472616e73666572206661696c65640000000000600082015250565b6000611570601b836112b5565b915061157b8261153a565b602082019050919050565b6000602082019050818103600083015261159f81611563565b9050919050565b60006115b182610ef4565b91506115bc83610ef4565b92508282039050818111156115d4576115d3611252565b5b92915050565b7f45786365656473206d6178696d756d20646f6e6174696f6e7300000000000000600082015250565b60006116106019836112b5565b915061161b826115da565b602082019050919050565b6000602082019050818103600083015261163f81611603565b9050919050565b600060608201905061165b600083018661112c565b611668602083018561112c565b6116756040830184611082565b949350505050565b7f5472616e73666572206661696c65640000000000000000000000000000000000600082015250565b60006116b3600f836112b5565b91506116be8261167d565b602082019050919050565b600060208201905081810360008301526116e2816116a6565b9050919050565b60006040820190506116fe600083018561112c565b61170b6020830184610fd2565b939250505056fea26469706673582212201d4f6db98714fccecf4ed04184cd0b64a25e13c03668a47f81f74865a186366564736f6c63430008140033",
  "linkReferences": {},
  "deployedLinkReferences": {}
}